:020000040000FA
:02000000FE2FD1
:100F6E008316031386010630831203138600B230F4
:100F7E00F2008F30F1001330F000F00BC42FF10BA4
:100F8E00C42FF20BC42F0C308312031386004D3086
:100F9E00F2001930F1004F30F000F00BD42FF10BAE
:100FAE00D42FF20BD42FDB2F303083120313860095
:100FBE00B230F2008F30F1001330F000F00BE52F5D
:100FCE00F10BE52FF20BE52F113083120313860080
:100FDE004D30F2001930F1004F30F000F00BF52FCC
:100FEE00F10BF52FF20BF52FFC2FBA2F00288301F2
:020FFE00B72F0B
:00000001FF
